{
  "contractName": "CollectibleStore",
  "abi": [
    {
      "constant": false,
      "inputs": [
        {
          "name": "index",
          "type": "uint256"
        }
      ],
      "name": "notDelivered",
      "outputs": [
        {
          "name": "",
          "type": "bool"
        }
      ],
      "payable": false,
      "stateMutability": "nonpayable",
      "type": "function"
    },
    {
      "constant": true,
      "inputs": [
        {
          "name": "index",
          "type": "uint256"
        }
      ],
      "name": "getCollectibleOwners",
      "outputs": [
        {
          "name": "",
          "type": "address[]"
        }
      ],
      "payable": false,
      "stateMutability": "view",
      "type": "function"
    },
    {
      "constant": true,
      "inputs": [
        {
          "name": "collIndex",
          "type": "uint256"
        }
      ],
      "name": "getCollectible",
      "outputs": [
        {
          "name": "desc",
          "type": "string"
        },
        {
          "name": "certNum",
          "type": "string"
        },
        {
          "name": "rating",
          "type": "string"
        },
        {
          "name": "status",
          "type": "uint8"
        },
        {
          "name": "ownerAddress",
          "type": "address"
        },
        {
          "name": "buyerAddress",
          "type": "address"
        },
        {
          "name": "collOldOwners",
          "type": "address[]"
        }
      ],
      "payable": false,
      "stateMutability": "view",
      "type": "function"
    },
    {
      "constant": true,
      "inputs": [
        {
          "name": "collIndex",
          "type": "uint256"
        }
      ],
      "name": "getCollectible2",
      "outputs": [
        {
          "name": "img",
          "type": "string"
        },
        {
          "name": "certNum",
          "type": "string"
        },
        {
          "name": "name",
          "type": "string"
        },
        {
          "name": "price",
          "type": "uint256"
        },
        {
          "name": "ownerAddress",
          "type": "address"
        },
        {
          "name": "buyerAddress",
          "type": "address"
        },
        {
          "name": "index",
          "type": "uint256"
        }
      ],
      "payable": false,
      "stateMutability": "view",
      "type": "function"
    },
    {
      "constant": true,
      "inputs": [
        {
          "name": "index",
          "type": "uint256"
        }
      ],
      "name": "getCollectibleOwnersCount",
      "outputs": [
        {
          "name": "",
          "type": "uint256"
        }
      ],
      "payable": false,
      "stateMutability": "view",
      "type": "function"
    },
    {
      "constant": false,
      "inputs": [
        {
          "name": "index",
          "type": "uint256"
        }
      ],
      "name": "confirmCollRecv",
      "outputs": [
        {
          "name": "",
          "type": "bool"
        }
      ],
      "payable": false,
      "stateMutability": "nonpayable",
      "type": "function"
    },
    {
      "constant": true,
      "inputs": [],
      "name": "collectibleIndex",
      "outputs": [
        {
          "name": "",
          "type": "uint256"
        }
      ],
      "payable": false,
      "stateMutability": "view",
      "type": "function"
    },
    {
      "constant": false,
      "inputs": [
        {
          "name": "index",
          "type": "uint256"
        }
      ],
      "name": "buyCollectible",
      "outputs": [
        {
          "name": "success",
          "type": "bool"
        }
      ],
      "payable": true,
      "stateMutability": "payable",
      "type": "function"
    },
    {
      "constant": true,
      "inputs": [],
      "name": "getCollectiblesCount",
      "outputs": [
        {
          "name": "count",
          "type": "uint256"
        }
      ],
      "payable": false,
      "stateMutability": "view",
      "type": "function"
    },
    {
      "constant": false,
      "inputs": [
        {
          "name": "index",
          "type": "uint256"
        }
      ],
      "name": "setAvailableForSale",
      "outputs": [
        {
          "name": "",
          "type": "bool"
        }
      ],
      "payable": false,
      "stateMutability": "nonpayable",
      "type": "function"
    },
    {
      "constant": true,
      "inputs": [
        {
          "name": "index",
          "type": "uint256"
        }
      ],
      "name": "isCollExists",
      "outputs": [
        {
          "name": "isExists",
          "type": "bool"
        }
      ],
      "payable": false,
      "stateMutability": "view",
      "type": "function"
    },
    {
      "constant": false,
      "inputs": [
        {
          "name": "_name",
          "type": "string"
        },
        {
          "name": "_certNum",
          "type": "string"
        },
        {
          "name": "_price",
          "type": "uint256"
        },
        {
          "name": "_img",
          "type": "string"
        },
        {
          "name": "_desc",
          "type": "string"
        },
        {
          "name": "_rating",
          "type": "string"
        }
      ],
      "name": "addCollectible",
      "outputs": [
        {
          "name": "success",
          "type": "bool"
        }
      ],
      "payable": false,
      "stateMutability": "nonpayable",
      "type": "function"
    },
    {
      "inputs": [],
      "payable": false,
      "stateMutability": "nonpayable",
      "type": "constructor"
    },
    {
      "payable": true,
      "stateMutability": "payable",
      "type": "fallback"
    }
  ],
  "bytecode": "0x6060604052341561000f57600080fd5b60008081905550611857806100256000396000f3006060604052600436106100ba576000357c0100000000000000000000000000000000000000000000000000000000900463ffffffff16806356551fb7146100bc57806360077ab2146100f757806372d996751461016f5780637af09a18146103a6578063934c3e2f1461058e578063a300c6ae146105c5578063a9d0854e14610600578063b04c8e8714610629578063b78016ee14610659578063c9392f7414610682578063eea2e3de146106bd578063ff7e5645146106f8575b005b34156100c757600080fd5b6100dd6004808035906020019091905050610882565b604051808215151515815260200191505060405180910390f35b341561010257600080fd5b61011860048080359060200190919050506109bf565b6040518080602001828103825283818151815260200191508051906020019060200280838360005b8381101561015b578082015181840152602081019050610140565b505050509050019250505060405180910390f35b341561017a57600080fd5b6101906004808035906020019091905050610a81565b604051808060200180602001806020018860028111156101ac57fe5b60ff1681526020018773ffffffffffffffffffffffffffffffffffffffff1673ffffffffffffffffffffffffffffffffffffffff1681526020018673ffffffffffffffffffffffffffffffffffffffff1673ffffffffffffffffffffffffffffffffffffffff1681526020018060200185810385528c818151815260200191508051906020019080838360005b83811015610254578082015181840152602081019050610239565b50505050905090810190601f1680156102815780820380516001836020036101000a031916815260200191505b5085810384528b818151815260200191508051906020019080838360005b838110156102ba57808201518184015260208101905061029f565b50505050905090810190601f1680156102e75780820380516001836020036101000a031916815260200191505b5085810383528a818151815260200191508051906020019080838360005b83811015610320578082015181840152602081019050610305565b50505050905090810190601f16801561034d5780820380516001836020036101000a031916815260200191505b50858103825286818151815260200191508051906020019060200280838360005b8381101561038957808201518184015260208101905061036e565b505050509050019b50505050505050505050505060405180910390f35b34156103b157600080fd5b6103c76004808035906020019091905050610e1d565b604051808060200180602001806020018881526020018773ffffffffffffffffffffffffffffffffffffffff1673ffffffffffffffffffffffffffffffffffffffff1681526020018673ffffffffffffffffffffffffffffffffffffffff1673ffffffffffffffffffffffffffffffffffffffff16815260200185815260200184810384528b818151815260200191508051906020019080838360005b8381101561047f578082015181840152602081019050610464565b50505050905090810190601f1680156104ac5780820380516001836020036101000a031916815260200191505b5084810383528a818151815260200191508051906020019080838360005b838110156104e55780820151818401526020810190506104ca565b50505050905090810190601f1680156105125780820380516001836020036101000a031916815260200191505b50848103825289818151815260200191508051906020019080838360005b8381101561054b578082015181840152602081019050610530565b50505050905090810190601f1680156105785780820380516001836020036101000a031916815260200191505b509a505050505050505050505060405180910390f35b341561059957600080fd5b6105af600480803590602001909190505061111e565b6040518082815260200191505060405180910390f35b34156105d057600080fd5b6105e66004808035906020019091905050611159565b604051808215151515815260200191505060405180910390f35b341561060b57600080fd5b6106136113ce565b6040518082815260200191505060405180910390f35b61063f60048080359060200190919050506113d4565b604051808215151515815260200191505060405180910390f35b341561066457600080fd5b61066c611484565b6040518082815260200191505060405180910390f35b341561068d57600080fd5b6106a3600480803590602001909190505061148d565b604051808215151515815260200191505060405180910390f35b34156106c857600080fd5b6106de60048080359060200190919050506114e7565b604051808215151515815260200191505060405180910390f35b341561070357600080fd5b610868600480803590602001908201803590602001908080601f0160208091040260200160405190810160405280939291908181526020018383808284378201915050505050509190803590602001908201803590602001908080601f0160208091040260200160405190810160405280939291908181526020018383808284378201915050505050509190803590602001909190803590602001908201803590602001908080601f0160208091040260200160405190810160405280939291908181526020018383808284378201915050505050509190803590602001908201803590602001908080601f0160208091040260200160405190810160405280939291908181526020018383808284378201915050505050509190803590602001908201803590602001908080601f01602080910402602001604051908101604052809392919081815260200183838082843782019150505050505091905050611528565b604051808215151515815260200191505060405180910390f35b600061088d826114e7565b156109b5576001600083815260200190815260200160002060050160009054906101000a900473ffffffffffffffffffffffffffffffffffffffff1673ffffffffffffffffffffffffffffffffffffffff166108fc60016000858152602001908152602001600020600301549081150290604051600060405180830381858888f19350505050151561091e57600080fd5b60006001600084815260200190815260200160002060040160006101000a81548160ff0219169083600281111561095157fe5b021790555060006001600084815260200190815260200160002060050160006101000a81548173ffffffffffffffffffffffffffffffffffffffff021916908373ffffffffffffffffffffffffffffffffffffffff160217905550600190506109ba565b600080fd5b919050565b6109c7611732565b6109d0826114e7565b15610a775760016000838152602001908152602001600020600601805480602002602001604051908101604052809291908181526020018280548015610a6b57602002820191906000526020600020905b8160009054906101000a900473ffffffffffffffffffffffffffffffffffffffff1673ffffffffffffffffffffffffffffffffffffffff1681526020019060010190808311610a21575b50505050509050610a7c565b600080fd5b919050565b610a89611746565b610a91611746565b610a99611746565b6000806000610aa6611732565b610aaf886114e7565b15610e0d5760016000898152602001908152602001600020600801600160008a8152602001908152602001600020600201600160008b8152602001908152602001600020600901600160008c815260200190815260200160002060040160009054906101000a900460ff16600160008d815260200190815260200160002060040160019054906101000a900473ffffffffffffffffffffffffffffffffffffffff16600160008e815260200190815260200160002060050160009054906101000a900473ffffffffffffffffffffffffffffffffffffffff16600160008f8152602001908152602001600020600601868054600181600116156101000203166002900480601f016020809104026020016040519081016040528092919081815260200182805460018160011615610100020316600290048015610c335780601f10610c0857610100808354040283529160200191610c33565b820191906000526020600020905b815481529060010190602001808311610c1657829003601f168201915b50505050509650858054600181600116156101000203166002900480601f016020809104026020016040519081016040528092919081815260200182805460018160011615610100020316600290048015610ccf5780601f10610ca457610100808354040283529160200191610ccf565b820191906000526020600020905b815481529060010190602001808311610cb257829003601f168201915b50505050509550848054600181600116156101000203166002900480601f016020809104026020016040519081016040528092919081815260200182805460018160011615610100020316600290048015610d6b5780601f10610d4057610100808354040283529160200191610d6b565b820191906000526020600020905b815481529060010190602001808311610d4e57829003601f168201915b5050505050945080805480602002602001604051908101604052809291908181526020018280548015610df357602002820191906000526020600020905b8160009054906101000a900473ffffffffffffffffffffffffffffffffffffffff1673ffffffffffffffffffffffffffffffffffffffff1681526020019060010190808311610da9575b505050505090509650965096509650965096509650610e12565b600080fd5b919395979092949650565b610e25611746565b610e2d611746565b610e35611746565b600080600080610e44886114e7565b1561110e5760016000898152602001908152602001600020600701600160008a8152602001908152602001600020600201600160008b8152602001908152602001600020600001600160008c815260200190815260200160002060030154600160008d815260200190815260200160002060040160019054906101000a900473ffffffffffffffffffffffffffffffffffffffff16600160008e815260200190815260200160002060050160009054906101000a900473ffffffffffffffffffffffffffffffffffffffff16600160008f815260200190815260200160002060010154868054600181600116156101000203166002900480601f016020809104026020016040519081016040528092919081815260200182805460018160011615610100020316600290048015610fbc5780601f10610f9157610100808354040283529160200191610fbc565b820191906000526020600020905b815481529060010190602001808311610f9f57829003601f168201915b50505050509650858054600181600116156101000203166002900480601f0160208091040260200160405190810160405280929190818152602001828054600181600116156101000203166002900480156110585780601f1061102d57610100808354040283529160200191611058565b820191906000526020600020905b81548152906001019060200180831161103b57829003601f168201915b50505050509550848054600181600116156101000203166002900480601f0160208091040260200160405190810160405280929190818152602001828054600181600116156101000203166002900480156110f45780601f106110c9576101008083540402835291602001916110f4565b820191906000526020600020905b8154815290600101906020018083116110d757829003601f168201915b505050505094509650965096509650965096509650611113565b600080fd5b919395979092949650565b6000611129826114e7565b1561114f5760016000838152602001908152602001600020600601805490509050611154565b600080fd5b919050565b6000611164826114e7565b156113c4576001600083815260200190815260200160002060040160019054906101000a900473ffffffffffffffffffffffffffffffffffffffff1673ffffffffffffffffffffffffffffffffffffffff166108fc60016000858152602001908152602001600020600301549081150290604051600060405180830381858888f1935050505015156111f557600080fd5b60006001600084815260200190815260200160002060040160006101000a81548160ff0219169083600281111561122857fe5b0217905550600160008381526020019081526020016000206006018054806001018281611255919061175a565b916000526020600020900160006001600086815260200190815260200160002060040160019054906101000a900473ffffffffffffffffffffffffffffffffffffffff16909190916101000a81548173ffffffffffffffffffffffffffffffffffffffff021916908373ffffffffffffffffffffffffffffffffffffffff160217905550506001600083815260200190815260200160002060050160009054906101000a900473ffffffffffffffffffffffffffffffffffffffff166001600084815260200190815260200160002060040160016101000a81548173ffffffffffffffffffffffffffffffffffffffff021916908373ffffffffffffffffffffffffffffffffffffffff16021790555060006001600084815260200190815260200160002060050160006101000a81548173ffffffffffffffffffffffffffffffffffffffff021916908373ffffffffffffffffffffffffffffffffffffffff160217905550600190506113c9565b600080fd5b919050565b60005481565b60006113df826114e7565b1561147a5760026001600084815260200190815260200160002060040160006101000a81548160ff0219169083600281111561141757fe5b0217905550336001600084815260200190815260200160002060050160006101000a81548173ffffffffffffffffffffffffffffffffffffffff021916908373ffffffffffffffffffffffffffffffffffffffff1602179055506001905061147f565b600080fd5b919050565b60008054905090565b6000611498826114e7565b156114dd57600180600084815260200190815260200160002060040160006101000a81548160ff021916908360028111156114cf57fe5b0217905550600190506114e2565b600080fd5b919050565b60008060005414156114fc5760009050611523565b6001600083815260200190815260200160002060050160149054906101000a900460ff1690505b919050565b60006115356000546114e7565b1561153f57600080fd5b6000546001600080548152602001908152602001600020600101819055508660016000805481526020019081526020016000206000019080519060200190611588929190611786565b5085600160008054815260200190815260200160002060020190805190602001906115b4929190611786565b50846001600080548152602001908152602001600020600301819055506000600160008054815260200190815260200160002060040160006101000a81548160ff0219169083600281111561160557fe5b021790555033600160008054815260200190815260200160002060040160016101000a81548173ffffffffffffffffffffffffffffffffffffffff021916908373ffffffffffffffffffffffffffffffffffffffff16021790555060018060008054815260200190815260200160002060050160146101000a81548160ff02191690831515021790555083600160008054815260200190815260200160002060070190805190602001906116ba929190611786565b5082600160008054815260200190815260200160002060080190805190602001906116e6929190611786565b508160016000805481526020019081526020016000206009019080519060200190611712929190611786565b506000808154809291906001019190505550600190509695505050505050565b602060405190810160405280600081525090565b602060405190810160405280600081525090565b815481835581811511611781578183600052602060002091820191016117809190611806565b5b505050565b828054600181600116156101000203166002900490600052602060002090601f016020900481019282601f106117c757805160ff19168380011785556117f5565b828001600101855582156117f5579182015b828111156117f45782518255916020019190600101906117d9565b5b5090506118029190611806565b5090565b61182891905b8082111561182457600081600090555060010161180c565b5090565b905600a165627a7a7230582050577a4ad7114e1e107e9c24a86a923daa59e5303eef842c7f6501e11e41f9bc0029",
  "source": "pragma solidity ^0.4.13;\n\n// Collectible contract that transfer ether between seller and buyer without escrow service\n// Escrow implementation is handled within the contract. Contract will hold the escrow money until user confirms\n// that the collectible has been received.\ncontract CollectibleStore {\n\n    uint public collectibleIndex;\n    // maintain the list of collectibles struct, certNum is the key. Enables us to \n    // pick a collectible based on a key value.\n    mapping (uint => collectible) private collectibles;\n   // uint[] private collIndex; // to maintain the number of records in mapping and also their keys.\n  // collectible[] private collArray;\n\n    enum collectibleStatus { Owned,Available, Sold }\n  \n    struct collectible {\n        string name;    //0\n        uint index;\n        string certNum;   //1  \n        uint price;     //2\n        collectibleStatus status;  //3\n        address ownerAddress;   //4 \n        address buyerAddress;   //5\n        bool isExists;          //6\n        // maintains the history of all the owners\n        address[] collOldOwners; //7\n        string imageLink; //8\n        string desc; //9\n        string rating; //10\n    }\n\n    function () payable {\n    }\n\n    function CollectibleStore() public {\n        collectibleIndex = 0;\n    }\n    // check if a collectible is already listed\n    function isCollExists (uint index) public view returns (bool isExists) {\n\n        if (collectibleIndex == 0) \n            return false;\n        return collectibles[index].isExists;\n    }\n\n    // Seller can list an item in BC to claim onwership or to put it on sale\n    function addCollectible (string _name, string _certNum, uint _price, string _img, string _desc, string _rating) public returns (bool success) {\n        if (isCollExists(collectibleIndex)) \n            revert();\n        collectibles[collectibleIndex].index = collectibleIndex;\n        collectibles[collectibleIndex].name = _name;\n        collectibles[collectibleIndex].certNum = _certNum;\n        collectibles[collectibleIndex].price = _price;\n        collectibles[collectibleIndex].status = collectibleStatus.Owned;\n        collectibles[collectibleIndex].ownerAddress = msg.sender;\n        collectibles[collectibleIndex].isExists = true;\n        collectibles[collectibleIndex].imageLink = _img;\n        collectibles[collectibleIndex].desc = _desc;\n        collectibles[collectibleIndex].rating = _rating;\n\n       // collArray.push(collectibles[_certNum]);\n        collectibleIndex++;\n\n        return true;        \n    }\n\n    // function getArrayCount() public constant returns(uint entityCount) {\n    //  return collArray.length;\n    // }\n\n    // gives full history and other attributes of the collectible\n    function getCollectible(uint collIndex) view public returns (string desc, string certNum, string rating , collectibleStatus status, address ownerAddress, address buyerAddress, address[] collOldOwners) {\n        if (isCollExists(collIndex)) {\n            return(\n                collectibles[collIndex].desc,\n                collectibles[collIndex].certNum,\n                collectibles[collIndex].rating,\n                collectibles[collIndex].status,\n                collectibles[collIndex].ownerAddress, \n                collectibles[collIndex].buyerAddress,\n                collectibles[collIndex].collOldOwners   \n             //   collectibles[_certNum].desc,\n               // collectibles[_certNum].rating\n              );\n        }\n        else\n            revert();\n        \n    }\n    // getCollectible has to be split up into different functions\n     function getCollectible2(uint collIndex) view public returns (string img, string certNum, string name, uint price,address ownerAddress, address buyerAddress, uint index) {\n        if (isCollExists(collIndex)) {\n            return(collectibles[collIndex].imageLink,            \n                collectibles[collIndex].certNum,            \n                collectibles[collIndex].name,\n                collectibles[collIndex].price,\n                collectibles[collIndex].ownerAddress, \n                collectibles[collIndex].buyerAddress,\n                collectibles[collIndex].index                \n              );\n        }\n        else\n            revert();\n        \n    }\n    // update the owner of a collectible - duplicate of buy Collectible\n    /* function updateCollOwner (uint _certNum, address newOwner, uint price) payable public returns (bool success) {\n\n        if (isCollExists(_certNum)) {\n\n            newOwner.transfer(price);\n            collectibles[_certNum].status = \"sold\"; \n            collectibles[_certNum].buyerAddress = newOwner;           \n            return true;\n        }\n        else\n            revert();\n    }*/\n\n    // update the owner of a collectible and transfer the ether to seller\n    // escrow is achieved by maintiaining the funds within the contract until buyer confirms\n    function buyCollectible (uint index) payable returns (bool success) {\n        //updateCollOwner(_certNum, msg.sender,msg.value);\n\n        if (isCollExists(index)) {\n\n            // add validation price and value check\n            // add validation is the asset is already in escrow\n            //collectibles[_certNum].ownerAddress.transfer(msg.value);\n            collectibles[index].status = collectibleStatus.Sold; \n            collectibles[index].buyerAddress = msg.sender;           \n            return true;\n        }\n        else\n            revert();\n\n        return true;\n    }\n\n    //validate collectible has been received by the buyer, contract will release the funds to the seller\n    function confirmCollRecv (uint index) public returns (bool) {\n\n         if (isCollExists(index)) {\n             // if 1 ether unit is not mentioned, default type of Wei is used.\n            collectibles[index].ownerAddress.transfer(collectibles[index].price);\n             collectibles[index].status = collectibleStatus.Owned;\n             collectibles[index].collOldOwners.push(collectibles[index].ownerAddress);\n             collectibles[index].ownerAddress = collectibles[index].buyerAddress;\n             collectibles[index].buyerAddress = address(0);\n             return true;\n         }\n         else\n            revert();\n        return false;\n    }\n\n    // return ether back to buyer if collectible not received\n    // Contract will release the fund back to the buyer if collectible is not delievered to buyer\n    function notDelivered (uint index) public returns (bool) {\n         if (isCollExists(index)) {\n             collectibles[index].buyerAddress.transfer(collectibles[index].price);\n             collectibles[index].status = collectibleStatus.Owned;\n             collectibles[index].buyerAddress = address(0);\n             return true;\n         }\n         else\n            revert();\n        return false;\n    }\n\n     // Contract will release the fund back to the buyer if collectible is not delievered to buyer\n    function setAvailableForSale (uint index) public returns (bool) {\n         if (isCollExists(index)) {            \n             collectibles[index].status = collectibleStatus.Available;            \n             return true;\n         }\n         else\n            revert();\n        return false;\n    }\n\n    // get count of all the historical owners\n    function getCollectibleOwnersCount (uint index) view public returns (uint) {\n         if (isCollExists(index)) {\n             return collectibles[index].collOldOwners.length;\n         }\n         else\n            revert();\n    }\n\n    // get addresses of all the historical owners\n    function getCollectibleOwners (uint index) view public returns (address[]) {\n         if (isCollExists(index)) {\n             return collectibles[index].collOldOwners;\n         }\n         else\n            revert();\n    }\n\n    // get collectible owners \n    function getCollectiblesCount() public constant returns (uint count) {\n        return collectibleIndex;\n    }\n\n}",
  "sourcePath": "/Users/arun/Projects/Blockchain/collectible-v3/contracts/CollectibeStore.sol",
  "compiler": {
    "name": "solc",
    "version": "0.4.18+commit.9cf6e910.Emscripten.clang"
  },
  "schemaVersion": "1.0.1",
  "updatedAt": "2017-12-11T14:53:25.022Z"
}